:10000000B8C20000D3C20000D1C20000CFC20000BD
:10001000CDC20000CBC20000C9C20000C7C20000B0
:10002000C5C20000C3C200000C94A61C0C946F1D36
:10003000BDC20000BBC20000B9C20000B7C20000D0
:10004000B5C20000B3C20000B1C20000AFC20000E0
:10005000ADC2000020C60000A9C20000A7C2000077
:10006000A5C20000A3C20000A1C200009FC2000000
:100070009DC200009BC2000099C2000097C2000010
:1000800095C2000093C2000091C200008FC2000020
:100090008DC200008BC2000089C2000087C2000030
:1000A00085C2000083C2000081C200001C034C0016
:1000B000550046004100200043004400430020005A
:1000C000440065006D006F000000180344006500E7
:1000D00061006E002000430061006D006500720049
:1000E000610000000403090409023E00020100C08F
:1000F000320904000001020201000524001001047D
:100100002402060524060001070582030800FF09F2
:10011000040100020A0000000705040210000507A0
:100120000583021000051201100102000008EB0314
:10013000442001000102DC01207F000000000000DB
:1001400000000000005E0000000000000600000645
:10015000000000247E24247E240000246B2A2A6BC5
:100160001200004626100864620000344A4A5420F7
:10017000500000000000060000000000003C4200AB
:100180000000000000423C000000002A1C3E1C2A27
:1001900000000008083E0808000000004030000091
:1001A00000000008080808080800000000400000DF
:1001B00000000040201008040200003C62524A4641
:1001C0003C000040447E40400000006452525252C5
:1001D0004C000024424A4A4A340000382422227E3D
:1001E0002000002E4A4A4A4A3200003C4A4A4A4A03
:1001F000300000020262120A060000344A4A4A4AEB
:100200003400000C525252523C0000000024000006
:10021000000000004024000000000000081422003C
:100220000000001414141414140000000022140818
:100230000000000402520A0400000018245A5A2444
:100240001800007C121212127C00007E4A4A4A4AB0
:100250003400003C424242422400007E424242427C
:100260003C00007E4A4A4A424200007E0A0A0A02D4
:100270000200003C424252523400007E0808080846
:100280007E000000427E42000000002040404040CE
:100290003E00007E080808146200007E4040404096
:1002A0004000007E040808047E00007E0408102040
:1002B0007E00003C424242423C00007E121212127A
:1002C0000C00003C425262423C00007E121212328C
:1002D0004C0000244A4A4A4A30000002027E0202D0
:1002E0000000003E404040403E00001E20404020B4
:1002F0001E00007E201010207E00004224181824CA
:1003000042000002047804020000004262524A46A1
:10031000420000007E42420000000002040810205B
:10032000400000000042427E000000000004020481
:1003300000008080808080808080000000020400B7
:1003400000000020545454780000007E4848483093
:100350000000003844444428000000304848487EEB
:10036000000000385454544800000000087C0A0281
:1003700000000018A4A4A47C0000007E08080870F7
:1003800000000000487A4000000000408080887A29
:100390000000007E1010284400000000427E400053
:1003A0000000007C047804780000007C04040478D9
:1003B0000000003844444438000000FC4444443801
:1003C00000000038444444FC0000007C080404049D
:1003D000000000485454542400000000043E44002F
:1003E0000000003C4040207C0000001C2040201CFD
:1003F0000000001C601C601C000000442810284401
:100400000000001CA0A0A07C0000004464544C44E8
:1004100000000000083641000000000000FF00005E
:100420000000000041360800000008040408101015
:100430000800000000000000000041542B4E564D03
:10044000524541440041542B4E564D524541445271
:1004500041573D0041542B4E564D5752495445008B
:1004600041542B4E564D57524954450041542B4E42
:10047000564D57524954450041542B47415053451E
:1004800054414456444154410041542B4741545433
:10049000434841525241573D0041542B424C454D37
:1004A00049444952585241570041542B424C4555FA
:1004B00041525452580041542B4556454E545354C2
:1004C00041545553004154493D3400415449004181
:1004D000542B474150444953434F4E4E45435400DB
:1004E00041542B474150474554434F4E4E004154D1
:1004F000450041542B464143544F525952455345B0
:10050000540041545A0041545A002C307800415450
:100510002B4556454E5444495341424C453D307855
:100520000041542B4556454E54454E41424C453DA5
:1005300030780041542B426C654B6579626F617273
:1005400064456E3D4F6E0041542B426C65484944F2
:10055000456E3D4F6E0041542B4741504445564E29
:10056000414D453D59656B204B6579626F61726401
:10057000000011241FBECFEFDAE0DEBFCDBF13E0D5
:10058000A0E0B1E0EEEDF8E402C005900D92A231DA
:10059000B107D9F725E0A2E1B3E001C01D92A4376D
:1005A000B207E1F70E9407190C946D2429CD292F79
:1005B00033272230310571F02330310581F02130AD
:1005C0003105A1F482E190E026E231E0FA013183C5
:1005D000208308958EE390E028EE30E0F7CF99274E
:1005E0008130910571F038F0029771F090E080E071
:1005F00030E020E0EBCFE4EEF0E0849190E09F016A
:10060000E5CFEAECF0E0F9CFECEAF0E0F6CFCF93FB
:10061000DF93DC011C96ED91FC911D97849131963E
:10062000E491681768F1E61758F1681B770B83E0CF
:10063000660F771F8A95E1F7CB010296EA01665FA4
:100640007F4F1C96ED91FC911D97E80FF91FE491E7
:10065000E993019686179707A1F751968C91882305
:1006600061F0FA019A01285F3F4F8191DF011197F4
:1006700080958C932E173F07C1F7DF91CF91089596
:10068000FA01CA0108961192E817F907E1F7E5CFD8
:10069000662329F06A3019F0862F90E008958FEFD5
:1006A0009FEF0895FC01758764870895CF92DF92CC
:1006B000EF92FF920F931F93CF93DF93CDB7DEB7E7
:1006C00028970FB6F894DEBF0FBECDBF7C01D62EA3
:1006D000C42EAE014F5F5F4F622F99DF8E010F5F17
:1006E0001F4F21E04C2D6D2DC7017DD028960FB6F0
:1006F000F894DEBF0FBECDBFDF91CF911F910F9158
:10070000FF90EF90DF90CF900895DF92EF92FF92ED
:100710000F931F93CF93DF93EC01E62ED42E1D8A07
:100720008901F12CF80161918F01EA81FB81CE01F1
:1007300009958F3F980761F08E3F2FEF920791F355
:10074000282F4D2D6E2DCE01B1DFE394F394EACF27
:100750008F2DDF91CF911F910F91FF90EF90DF9040
:100760000895E8E4F3E0DC011396FC93EE9312970E
:10077000CCCFFC0171836083FB012289FC01208BBB
:100780000895CF93DF93EC01EA85FB8530E020E00C
:1007900040E068E20995EE81FF8130E020E040E032
:1007A00064E1CE01099541E06BE4CE0121D2E881FC
:1007B000F981448169E2CE011BD240E06BE4CE01B5
:1007C00017D2E881F981448169E2CE0111D241E07A
:1007D0006BE4CE010DD2E881F981458169E2CE0159
:1007E000DF91CF9105C20F931F93CF93DF9300D07A
:1007F00000D01F92CDB7DEB76C834D832B831A8355
:100800000983DC011496ED91FC919E012F5F3F4F0F
:1008100041E06FE009950F900F900F900F900F90AF
:10082000DF91CF911F910F910895DC011496ED9106
:10083000FC9130E020E040E069E00994DC0114968E
:10084000ED91FC9130E020E040E06AE00994462F11
:10085000DC011496ED91FC9130E020E06BE009940E
:10086000462FDC011496ED91FC9130E020E06DE024
:100870000994CF92DF92FF920F931F93CF93DF9350
:1008800000D000D01F92CDB7DEB78C011C8281E072
:100890008B837A836983D801ED91FC91F1881D8265
:1008A000F801A081B181C480D5809E012F5F3F4FA8
:1008B00050964C916FE0C801F60109958D818F5FCC
:1008C0008D838F1568F30F900F900F900F900F90FE
:1008D000DF91CF911F910F91FF90DF90CF900895FE
:1008E000CF93DF93CDB7DEB728970FB6F894DEBF6E
:1008F0000FBECDBFBE016F5F7F4F28E0FB0111929D
:100900002A95E9F7B6DF28960FB6F894DEBF0FBE3A
:10091000CDBFDF91CF9108959A01DC011896ED913A
:10092000FC91462F67E10994CF93DF931F92CDB7D7
:10093000DEB76983AE014F5F5F4F61E0EDDF0F907F
:10094000DF91CF910895DC011896ED91FC9130E094
:1009500020E040E068E10994DC011896ED91FC91FB
:1009600030E020E040E069E10994EF92FF921F93AC
:10097000CF93DF93EC01162F7A01E5DF60E4CE011F
:10098000D3DFE885F9859701412F67E1CE0109950D
:10099000CE01DF91CF911F91FF90EF90DDCF462FD9
:1009A000DC011696ED91FC9130E020E065E10994C0
:1009B000462FDC011696ED91FC9130E020E066E1D7
:1009C00009949A01DC011696ED91FC91462F67E19E
:1009D0000994DC011696ED91FC9130E020E040E0B6
:1009E00068E10994DC011696ED91FC9130E020E07D
:1009F00040E069E10994EF92FF920F931F93CF9328
:100A0000DF931F92CDB7DEB77C018B01D8016C91CB
:100A1000673121F150F4653198F40F90DF91CF9157
:100A20001F910F91FF90EF9008956A3108F16E3F8A
:100A3000A1F7F8014181498369E2C701D9D00BC010
:100A4000F80141814983D7011696ED91FC9130E080
:100A500020E0C70109950E5F1F4FD8CFF8018181B3
:100A60008983AE014F5F5F4F61E0C701AADFF3CF1B
:100A70000F5F1F4FD7011696ED91FC9130E020E0FB
:100A800040E0C7010995C2CFEF92FF921F93CF9329
:100A9000DF93EC01142F7901673130F4653178F47C
:100AA000643129F180E005C06731D1F06A31D0F7B7
:100AB00081E0DF91CF911F91FF90EF90089543DF88
:100AC00060E0CE0131DF612FCE012EDFCE0144DFA9
:100AD000EFCF68E1CE0149DF185188E1E80EF11C43
:100AE000A7011931B0F7612FCE013FDFE1CF8A892D
:100AF0008F3F11F488E78A8BE885F9859701412FAC
:100B000064E1CE01DF91CF911F91FF90EF900994A6
:100B1000EF92FF920F931F93CF93DF93EC01042F7B
:100B20007901693059F46BE271E023DE81E0DF91F5
:100B3000CF911F910F91FF90EF9008956D3009F4C0
:100B40003CC030F46A3061F16B3081F180E0EFCF6E
:100B50006E3009F443C06F30C9F73BDFF7011381F2
:100B6000110F110F110F6889160F612F62956F70A9
:100B70006061CE0114DF612F6F70CE0110DFF701CD
:100B80006481606BCE010BDFF7014081518162818E
:100B9000660F660F660FCE0114DF0150A9F725C05E
:100BA000F0DD6BE571E0CE0126DFC0CF66E571E0D8
:100BB0004423C9F361E571E0F6CF411108C06AE44E
:100BC00071E019DFE881F9818289888BAFCF63E416
:100BD00071E011DFE881F9818389F7CFFADE61E8FE
:100BE000CE01DDDE602FCE01E3DECE01FBDE9ECF47
:100BF000DC011A96ED91FC9130E020E0099480E050
:100C00000895FC01118210828FEF95E09583848313
:100C1000978386839187808793878287118A148A36
:100C2000158A8FEF828B878B0895CF92DF92EF9298
:100C3000FF920F931F93CF93DF93EC016B017A0127
:100C40008901DFDFDD82CC82FF82EE82198708878F
:100C50008FEF95E09B878A87CE01DF91CF911F911F
:100C60000F91FF90EF90DF90CF90DFCD82E084BDB9
:100C700093E095BD80936E008DE787BD08952FB7F3
:100C8000F894609112037091130380911403909172
:100C900015032FBF08951F920F920FB60F921124C4
:100CA0008F939F93AF93BF938091120390911303FF
:100CB000A0911403B09115030196A11DB11D80935D
:100CC000120390931303A0931403B0931503BF91E1
:100CD000AF919F918F910F900FBE0F901F9018951D
:100CE0008BB183608BB9ECEBF0E080818460808312
:100CF0001092B90080E28093B80008951F93CF93BB
:100D0000DF93D82F192FC62F6AE080E50E944D1A75
:100D1000812F0E94A11A8D2F0E94A11A8C2F0E9450
:100D2000A11A84E98093BC00DF91CF911F910895AF
:100D30000F931F93CF93DF931F92CDB7DEB7182F7A
:100D4000092F6AE080E50E944D1A802F0E94A11AA7
:100D5000812F0E94A11A14E91093BC006AE080EA76
:100D60000E944D1A811107C061E0CE0101960E94D8
:100D7000B21A1093BC0089810F90DF91CF911F911F
:100D80000F910895CF93DF938091160390911703ED
:100D9000892B59F481E090E00E949210EC010E94AE
:100DA0002D11D0931703C0931603DF91CF910895AF
:100DB00080911603909117030C948811682F8091ED
:100DC0001603909117030C94B21180911603909121
:100DD00017030C943413682F809116039091170316
:100DE0000C94C51380911603909117030C949513DE
:100DF00080911603909117030C946D13BC018091A0
:100E00001603909117030C941412BC0180911603E1
:100E1000909117030C94E61180911603909117039B
:100E20000C94591280911603909117030C94A212FE
:100E300080911603909117030C94EB120F93FC0111
:100E400071836083538342832483058313861286D0
:100E500011861086178216820F910895FC01178261
:100E6000168211861086138612860895CF93DF931B
:100E7000EC012E813F818A819B812817390719F463
:100E80008D81882329F14C8150E028853985429F46
:100E9000C001439F900D529F900D112428813981EC
:100EA000820F931F0E949F23888599852A813B8109
:100EB0000196B9010E94F120998788878E819F81D0
:100EC0002817390741F4888599859B878A8781E0AF
:100ED000DF91CF9108958E819F8101969F838E83AC
:100EE000F6CFCF92DF92EF92FF920F931F93CF93A3
:100EF000DF936C018B017A01D0E0C0E0452B69F0F3
:100F0000B801C601B3DF882341F02196F601848140
:100F1000080F111DEC16FD0699F7CE01DF91CF9158
:100F20001F910F91FF90EF90DF90CF900895CF9396
:100F3000DF93EC01CB012E813F81232B19F14C81F2
:100F400050E06A857B85469F9001479F300D569FF4
:100F5000300D112468817981620F731F0E949F23D5
:100F60008A859B8501966A817B810E94F1209B87FF
:100F70008A878E819F8101979F838E8381E0DF9195
:100F8000CF91089580E0FBCFFC01CB012681378112
:100F9000232B99F0448150E062857385469F900130
:100FA000479F300D569F300D112460817181620F73
:100FB000731F0E949F2381E0089580E0089590E0D0
:100FC00080E008950895AF92BF92CF92DF92EF92A2
:100FD000FF920F931F93CF93DF936C017B018B01E3
:100FE000040F151FEB015E01AE18BF08C017D10733
:100FF00059F06991D601ED91FC910190F081E02DBD
:10100000C6010995892B79F7C501DF91CF911F9111
:101010000F91FF90EF90DF90CF90BF90AF90089529
:10102000FB0101900020E9F73197AF01461B570BF8
:10103000DC01ED91FC910280F381E02D0994EF92A7
:10104000FF920F931F93CF93DF938C017B01D0E02E
:10105000C0E0F701EC0FFD1F6491662361F0D80139
:10106000ED91FC910190F081E02DC8010995892B4B
:1010700011F02196EECFCE01DF91CF911F910F910C
:10108000FF90EF9008956115710509F0C9CF90E0C8
:1010900080E00895DC01ED91FC910190F081E02D5C
:1010A000099462E072E0BCCF0F931F93CF93DF935C
:1010B000EC01C5DF8C01CE01F4DF800F911FDF91C1
:1010C000CF911F910F9108950F931F93CF93DF93AB
:1010D000EC01D9DF8C01CE01E4DF800F911FDF919D
:1010E000CF911F910F9108958F929F92AF92BF92CF
:1010F000EF92FF920F931F93CF93DF93CDB7DEB79D
:10110000A1970FB6F894DEBF0FBECDBF7C01FA01E8
:10111000CB0119A2223008F42AE08E010F5D1F4F87
:10112000822E912CB12CA12CBF01A50194010E940B
:101130001821F901CA016A3000F5605DD8016E938B
:101140008D01232B242B252B79F790E080E010973D
:1011500019F0BD01C70164DFA1960FB6F894DEBF98
:101160000FBECDBFDF91CF911F910F91FF90EF90F8
:10117000BF90AF909F908F900895695CDFCFCF9222
:10118000DF92EF92FF920F931F93CF93DF93EC01C7
:101190006A017B012115310579F4E881F98101901B
:1011A000F081E02D642FDF91CF911F910F91FF907F
:1011B000EF90DF90CF9009942A303105D9F42AE0DE
:1011C000F7FE18C06DE266DF8C0144275527BA018F
:1011D0004C195D096E097F092AE0CE0185DF800F79
:1011E000911FDF91CF911F910F91FF90EF90DF90B2
:1011F000CF900895B701A601CE01DF91CF911F9145
:101200000F91FF90EF90DF90CF906ECF9A01AB01DE
:10121000770F660B770BB3CF2115310541F4DC0155
:10122000ED91FC910190F081E02D642F09945CCF49
:101230009A01462F50E070E060E0EECF9A01AB01DA
:1012400070E060E0E9CFFFCFFC011382128288EEEC
:1012500093E0A0E0B0E084839583A683B7838AED12
:1012600091E09183808381E08487158608958F9231
:101270009F92AF92BF92CF92DF92EF92FF920F9325
:10128000CF93DF936C017B014A015901D0E0C0E0AC
:10129000A114B10411F1D601ED91FC910084F18506
:1012A000E02DC6010995892B49F1D601ED91FC91FC
:1012B0000284F385E02DC60109958D3061F38A30F3
:1012C00021F4209741F3002341F0F701EC0FFD1FBB
:1012D00080832196C815D905F0F2F701EC0FFD1FA8
:1012E0001082CE01DF91CF910F91FF90EF90DF90B0
:1012F000CF90BF90AF909F908F900895B1E0AB1AC0
:10130000B10859F38FEC97E00197F1F700C00000A6
:10131000BFCFCF92DF92EF92FF920F93CF93DF93E5
:10132000CDB7DEB7C154D1090FB6F894DEBF0FBEFA
:10133000CDBF7C016C018EE0C80ED11CF701248169
:10134000358100E040E450E0BE016F5F7F4FC70190
:101350008EDF892B39F162EC71E0CE0101960E949B
:10136000AF23892B79F065EC71E0CE0101960E94E4
:10137000AF23892BB9F0BE016F5F7F4FC6010E947A
:10138000B823DCCF81E0CF5BDF4F0FB6F894DEBF30
:101390000FBECDBFDF91CF910F91FF90EF90DF9007
:1013A000CF90089580E0EFCF0F93CF93DF93EC01C0
:1013B0002E96FC012481358100E040E450E0BE011E
:1013C00056DF892B51F050E040E070E060E0CE0144
:1013D000DF91CF910F910C94782260E070E0CB0107
:1013E000DF91CF910F910895CF92DF92EF92FF920C
:1013F0000F931F93CF938C016A017B0181E0C81A80
:10140000D10870F1F701C1917F01D801ED91FC91F4
:101410000190F081E02D6C2F62956F7087E36A3048
:1014200008F480E3680FC8010995D801ED91FC919B
:101430000190F081E02DCF7067E3CA3008F460E3DB
:101440006C0FC8010995C114D104C1F2D801ED9106
:10145000FC910190F081E02D6DE2C8010995CECF9D
:101460008CEF9FEFCF911F910F91FF90EF90DF9046
:10147000CF9008956F927F928F929F92AF92BF927A
:10148000CF92DF92EF92FF920F931F93CF93DF9350
:10149000EC015B014901C42ED12CF12CE12C360169
:1014A00021E0621A7108CE14DF0409F478C0E1105B
:1014B00003C06DE3CE01EEDDF401419151914F0186
:1014C000CA0188278115F4E09F0709F43EC090F413
:1014D0008115E2E09E0791F18115F3E09F0709F481
:1014E0003EC08115914081F4F80160817181CE0187
:1014F000CADD0AC08115E6E09E0709F43AC080F40F
:101500008115954009F43DC0E614F70419F06CE22A
:10151000CE01C0DDFFEFEF1AFF0A0C5F1F4FC3CFF4
:101520008115E7E09E07A9F18115984069F74AE027
:1015300050E0F8016081CE017BDEE6CF5527F8014F
:1015400060817181CE0150DFDFCFF8014081518190
:10155000628173812AE030E0CE015EDED5CFF801F2
:1015600040815181628173812AE030E0CE0107DE43
:10157000CBCFF801608171814AE050E0CE015EDEA0
:10158000C3CFF801608171814AE050E0CE013EDEB8
:10159000BBCFF8016081062E000C770BF5CFCE0192
:1015A00080DDA114B10439F0CE01FEDEF5016083C7
:1015B000718382839383CE01DF91CF911F910F912D
:1015C000FF90EF90DF90CF90BF90AF909F908F9063
:1015D0007F906F909ECE7F928F929F92AF92BF929C
:1015E000CF92DF92EF92FF920F931F93CF93DF93EF
:1015F000EC014B016A01722E58018701FC84F11045
:1016000007C0E881F9810684F785E02D61E009953E
:10161000B401CE0114DD9501472DB601CE012ADFBC
:10162000182FF11008C0E881F9810684F785E02DB4
:1016300060E0CE010995812FDF91CF911F910F912D
:10164000FF90EF90DF90CF90BF90AF909F908F90E2
:101650007F900895EF92FF920F931F93F12CE12C4E
:1016600010E000E020E050E040E0B5DF1F910F9176
:10167000FF90EF9008950F93FC0124813581BC0108
:10168000625F7F4F00E040E450E0F1DD0F9108958C
:10169000CF93DF93EC01D8DD8EEE91E099838883C0
:1016A0008AEF90E0A0E0B0E08C839D83AE83BF839F
:1016B000FE01E05BFF4F108211821282138234968A
:1016C000118210823296118210823296118210821B
:1016D000329611821082C45ADF4F19821882DF912C
:1016E000CF9108950F931F93CF93DF93EC01062FB3
:1016F00015E066E075E0CE01ADDF81112AC0115022
:10170000C1F72FE788E391E0215080409040E1F756
:1017100000C00000E881F9810684F785E02D61E0D2
:10172000CE0109952FE788E391E021508040904059
:10173000E1F700C0000015E062E075E0CE018ADF4D
:10174000811107C01150C1F7DF91CF911F910F9107
:10175000089595DAFE01E05BFF4F60837183828319
:101760009383002349F02FEF89E698E121508040D0
:101770009040E1F700C00000E881F9810680F78120
:10178000E02DCE01099581E0DFCFEF92FF920F931C
:101790001F93CF93DF9300D000D000D0CDB7DEB73A
:1017A00020E033E03E832D83462F50E070E060E080
:1017B00049835A836B837C839E012F5F3F4F79015E
:1017C0008E010B5F1F4F21E050E040E06EEE74E0B1
:1017D00002DF26960FB6F894DEBF0FBECDBFDF91B5
:1017E000CF911F910F91FF90EF900895EF92FF928C
:1017F0000F931F93CF93DF93EC017B010C850111B5
:1018000007C0E881F9810684F785E02D61E009953C
:1018100065EC74E0CE0148DCCE012DDFB701CE01CE
:101820000E960E94AF239095192F111F1127111F9B
:10183000CE016FDD011108C0E881F9810684F785CA
:10184000E02D60E0CE010995812FDF91CF911F91AE
:101850000F91FF90EF900895623030F4FC012485E1
:101860002613648781E0089580E008958B549F4F8C
:10187000F5CACF92DF92EF92FF92CF93DF93EC0104
:10188000FED9C880D980EA80FB806C197D098E0959
:101890009F0921E0CC80DD80EE80FF806C157D0506
:1018A0008E059F0508F420E0822FDF91CF91FF90F5
:1018B000EF90DF90CF9008950F931F93CF93DF9316
:1018C000EC01122FE5DE8DE092E099838883BE0162
:1018D0006B587F4F01E021E040E450E0CE018B5493
:1018E0009F4FACDAFE01E15BFF4F83E0808393B151
:1018F0008CB13F969071908331968074808331963D
:10190000108331968FEF8083319680833196808368
:10191000CC58DF4F1882DF91CF911F910F9108951E
:101920000F931F93CF93DF931F92CDB7DEB7FC01C8
:10193000348521E0231B248721E3231B29838C0189
:101940000B541F4FBE016F5F7F4FC8018FDA46E017
:1019500050E06EEF71E0C801C4DA0F90DF91CF91D3
:101960001F910F9108958F599F4FFC0180818F3FE8
:1019700031F46EBD0DB407FEFDCF8EB5089527E09E
:1019800030E080E070E0880F2998AB01022E02C0A1
:10199000559547950A94E2F740FF09C02A9A299A7B
:1019A0001B9981602150310970F7299808952A9870
:1019B000F6CFEF92FF920F931F93CF93DF937C01AB
:1019C000EB018B01040F151FC017D10729F06881A7
:1019D000C701C9DF8993F8CFDF91CF911F910F9194
:1019E000FF90EF9008958F929F92AF92BF92CF9207
:1019F000DF92EF92FF920F931F93CF93DF93CDB7B8
:101A0000DEB76C970FB6F894DEBF0FBECDBF7C017A
:101A1000B62EA72E6A01122F011107C0DC01ED912D
:101A2000FC910680F781E02D099580E18983AB82E6
:101A3000BA828C818078912F9F77892B8C8310318B
:101A400009F000E08C8100FB87F98C83C114D1047C
:101A500049F0112339F0412F50E0B601CE0105962F
:101A60000E949F232C98F70184809580A680B780E0
:101A700006D96D8B7E8B8F8B988F898E9A8EAB8ECD
:101A8000BC8E6981C7016FDF8E3F41F4CE01459660
:101A9000F0DE811103C02C9A2C98F3CFCE0145962D
:101AA000E8DE01E0082749F0412F50E04D5F5F4F2D
:101AB000BE016E5F7F4FC7017CDF2C9A802F6C9632
:101AC0000FB6F894DEBF0FBECDBFDF91CF911F914F
:101AD0000F91FF90EF90DF90CF90BF90AF909F90CD
:101AE0008F9008950F9300E020E050E040E06FEE0B
:101AF0007EEB79DF0F910895CF93C42FFC016587AA
:101B00006E98249A2C9AEF59FF4F20812F3FD9F4D9
:101B1000209A289A24B1266024B923982B9A2DB5AF
:101B200021602DBD20982CE52CBDDCDFCC2349F0B5
:101B3000FFEF29E638E1F15020403040E1F700C0E6
:101B40000000CF910895219A29982398229A23B1D1
:101B500022702083EACF8F929F92AF92BF92CF9252
:101B6000DF92EF92FF920F931F93CF93DF93CDB746
:101B7000DEB728970FB6F894DEBF0FBECDBF6C015D
:101B80008B01FC0184809580A680B780880C991C0D
:101B9000AA1CBB1C74D869837A838B839C838D8237
:101BA0009E82AF82B886669907C0CE01019661DE3B
:101BB0008823C9F380E03DC02C98F601848095808D
:101BC000A680B7805CD869837A838B839C838D825F
:101BD0009E82AF82B886CE0101964BDE811111C084
:101BE0006FEFC601C0DEF80180838E3F19F42C9A96
:101BF0002C9802C08F3FD9F3F80180818E5F82302C
:101C000050F3F8018081803269F0803859F0CE01BC
:101C100001962FDE811106C06FEFC601A4DEF80128
:101C20008083EFCFCE01019624DE8823A9F080E0E7
:101C30002C9A28960FB6F894DEBF0FBECDBFDF9169
:101C4000CF911F910F91FF90EF90DF90CF90BF90B9
:101C5000AF909F908F90089543E050E06FEF70E059
:101C60007801FFEFEF1AFF0AC7010E94A82343E0A3
:101C700050E0B701C6019DDEF8018181928120818B
:101C80002038A9F29A50039790F683818F7781319B
:101C900070F6E82EF12C0C5F1F4FA7016FEF70E07C
:101CA000C8010E94A823A701B801C60182DE81E015
:101CB000BFCFAF92BF92CF92DF92EF92FF920F937E
:101CC0001F93CF93DF93CDB7DEB764970FB6F89429
:101CD000DEBF0FBECDBF7C018C010B541F4F84E1D2
:101CE000A82ECE0101966C01F801268137818281F0
:101CF0009381821B930B409748F1F6018A2D119234
:101D00008A95E9F7B601C70126DFB82E882361F06E
:101D10004C814F7731F050E0BE016B5F7F4FC801BF
:101D2000E0D88C8187FDE0CF8B2D64960FB6F894B8
:101D3000DEBF0FBECDBFDF91CF911F910F91FF90FE
:101D4000EF90DF90CF90BF90AF900895BB24B394F5
:101D5000EBCFAF92BF92CF92DF92EF92FF920F93B1
:101D60001F93CF93DF931F92CDB7DEB77C016983BA
:101D7000FC018485811119C000E021E0AE014F5FB4
:101D80005F4F61E07AE0C7012EDEC70192DF81E09C
:101D900090E00F90DF91CF911F910F91FF90EF9006
:101DA000DF90CF90BF90AF90089589816701F4E7ED
:101DB000CF0ED11CF60110818D3011F08A30E1F484
:101DC000112329F35701F4E6AF0EB11C43E050E0B4
:101DD00065E072E0C5010E949223892B29F4C701B6
:101DE0009FDDF6011082D3CF00E0212FA50160E036
:101DF0007AE0C701F8DDF5CF103191F45701F4E630
:101E0000AF0EB11C01E020E1A50160E07AE0C7015E
:101E1000EADD8981F501808381E0F6018083B7CF17
:101E200091E0910F9083E10EF11CF701EC59FF4F07
:101E3000F5CF8F929F92AF92BF92CF92DF92EF92A7
:101E4000FF920F93CF93DF935C01EB016A01DC01FA
:101E50001C968C918823A1F07B01E40EF51ED12CF9
:101E6000C12CCE15DF0519F16991D501ED91FC91D9
:101E70000190F081E02DC5010995C80ED91EF1CF62
:101E80004330510508F143E050E065E072E0CE01D7
:101E90000E949223892BC1F4E3E0CE16D10429F0ED
:101EA0008B818D3011F08A3079F4C50139DDC6019E
:101EB000DF91CF910F91FF90EF90DF90CF90BF9087
:101EC000AF909F908F9008957601E114F104B1F0E6
:101ED0004701F1E1EF16F10418F080E1882E912C12
:101EE000E818F90801E009F400E0282DAE0161E0EE
:101EF0007AE0C50178DDC80DD91DE7CFC501D9DE6F
:101F0000D6CFEF92FF920F93CF93DF93EC017C013A
:101F100085EBE80EF11CF70186819781892B41F052
:101F200086819781DF91CF910F91FF90EF90089577
:101F30008C8581110CC000E020E050E040E062E0C0
:101F40007AE0CE0150DDCE01B4DEF701E9CF8CB1ED
:101F50008074C15ADF4F8883082E000C990BE2CFA2
:101F6000CF92DF92EF92FF920F93CF93DF931F9266
:101F7000CDB7DEB77C016C0185EBC80ED11CF60134
:101F800086819781892B89F0BE016F5F7F4FC601E3
:101F90000E949707898190E00F90DF91CF910F9178
:101FA000FF90EF90DF90CF900895F7018485811125
:101FB0000BC000E020E050E040E062E07AE0C701C2
:101FC00012DDC70176DE07C08CB18074E15AFF4F85
:101FD00080838111F6CFBE016F5F7F4FC6010E94E3
:101FE00097078111D7CF8FEF9FEFD6CFCF92DF9298
:101FF000EF92FF920F93CF93DF931F92CDB7DEB78F
:102000007C016C0185EBC80ED11CBE016F5F7F4F58
:10201000C6010E94C407882359F0898190E00F907F
:10202000DF91CF910F91FF90EF90DF90CF900895C7
:10203000F701848581110BC000E020E050E040E012
:1020400062E07AE0C701CFDCC70133DE07C08CB1A4
:102050008074E15AFF4F80838111F6CFBE016F5F1C
:102060007F4FC6010E94C4078111D7CF8FEF9FEF2A
:10207000D6CFCF93DF938091180390911903892BCA
:1020800061F481EC90E04ED0EC012FEF47E068E086
:1020900013DCD0931903C0931803DF91CF910895F7
:1020A000BC0180911803909119030C944308F8CF58
:1020B000BC01809118039091190306C88091180300
:1020C0009091190326C941E0682F809118039091DF
:1020D000190312CD682F809118039091190355CBE5
:1020E00066E575E08091180390911903B3CA67E41F
:1020F00075E08091180390911903ACCA63E375E011
:102100008091180390911903A5CA6DE172E0809146
:102110001803909119036ACB61E0809118039091A4
:102120001903E0CA0C945321FC0161837283AB0153
:10213000770F660B770BCB01BB2797FDB095AB2FC5
:10214000838374830895FC0181819281890F99278B
:10215000991F93952381280F392F311D8481280FD2
:10216000311D8581820F932F911D2681820F911D34
:102170000895FF920F931F93CF93DF938C018CE010
:1021800090E00E945321EC01F801F080F582168264
:10219000C801D9DF25E528832AEA298321E02A839B
:1021A0001B82F80121812C8322812D8323812E83A0
:1021B00024812F83F88619868A879B87CE01DF9139
:1021C000CF911F910F91FF900895882359F06331AB
:1021D00048F4E62FF0E0EE0FFF1FE057FE4F80813E
:1021E000918108958FEF9FEF08950F931F93CF93E1
:1021F000DF938C01EB018885803311F581E0F801D4
:10220000848B6C818D81E1DFF801918380838C81E7
:1022100086878D8187878E81808B8F81818B888552
:10222000828B8985838B3296CE010C9629912193DE
:10223000C817D907D9F7DF91CF911F910F91089552
:10224000F801148ADECFFC01278530E0322F2227E7
:102250008685820F932F911D089583E390E09093DC
:10226000CD008093CC0086E08093CA001092C80015
:1022700088E18093C900539A5A9A0895EF92FF9289
:102280000F931F93CF93DF937C018091C80087FF4A
:10229000FCCF8091C80087FFF8CF8091CE008535B4
:1022A000A1F78CE090E00E945321EC01FC0185E550
:1022B00081939E01245F3F4F8091C80087FD07C036
:1022C0008FE19EE40197F1F700C00000F5CF809107
:1022D000C80087FF1AC08091CE008193E217F307F0
:1022E00059F785E190E00E9453218C01F70140816C
:1022F000BE017BDFCE010E94EF21C801DF91CF91AB
:102300001F910F91FF90EF9008958FEF9FEFE5CF12
:10231000EF92FF920F931F93CF93DF937C0187E09F
:1023200090E00E945321EC0181E0888319821A8297
:102330001B821C82CE011DDF8C01CE010E94EF2189
:102340006CE070E0C8010E943D1AC70197DF0E944F
:10235000EF21C801DF91CF911F910F91FF90EF9076
:102360000C94EF21EF92FF920F931F93CF93DF9383
:102370007C01162F87E090E00E945321EC0182E15E
:102380008883112309F181E089831A821B821C82D0
:10239000CE01EFDE8C01CE010E94EF216CE070E0F7
:1023A000C8010E943D1AC70169DFFC01C4890E946F
:1023B000EF21C8010E94EF218C2FDF91CF911F9157
:1023C0000F91FF90EF9008951982DFCFEF92FF9267
:1023D0000F931F93CF93DF937C018B0187E090E0F5
:1023E0000E945321EC0181E28883B801CE019CDE7A
:1023F000CE01BFDE8C01CE010E94EF216CE070E0C7
:10240000C8010E943D1AC8010E94EF21C70136DFB2
:10241000FC01C4890E94EF218C2FDF91CF911F9185
:102420000F91FF90EF900895EF92FF920F931F93FB
:10243000CF93DF937C018B0187E090E00E945321D2
:10244000EC0182E28883B801CE016EDECE0191DE1E
:102450008C01CE010E94EF216CE070E0C8010E9467
:102460003D1AC8010E94EF21C70108DFFC01248941
:10247000211113C020813181C1E0D0E02930F0E189
:102480003F0769F0C2E0D0E0233040E1340739F083
:10249000C3E0D0E02530304111F0D0E0C0E00E9430
:1024A000EF21CE01DF91CF911F910F91FF90EF901F
:1024B0000895EF92FF920F931F93CF93DF937C01C8
:1024C00087E090E00E945321EC0183E28883CE01F3
:1024D00050DE8C01CE010E94EF216CE070E0C8015B
:1024E000CCD7C8010E94EF21C701C8DE8C01ABDE4A
:1024F000D0E0C0E0883C910514F4C3E0D0E0F801DE
:10250000848981110BC0808191818D30F0E19F071A
:10251000B1F08C30904111F4C2E0D0E0C8010E94CB
:10252000EF21F8018489882311F0D0E0C0E0CE01CA
:10253000DF91CF911F910F91FF90EF900895C1E02F
:10254000D0E0ECCFEF92FF920F931F93CF93DF93E6
:102550007C0187E090E00E945321EC0184E28883B3
:10256000CE0107DE8C01CE010E94EF216CE070E00D
:10257000C80183D7C8010E94EF21C7017FDE8C010B
:1025800062DED0E0C0E0883C910514F4C3E0D0E006
:10259000F801848981110BC0808191818D30F0E137
:1025A0009F07B1F08C30904111F4C2E0D0E0C80137
:1025B0000E94EF21F8018489882311F0D0E0C0E067
:1025C000CE01DF91CF911F910F91FF90EF90089571
:1025D000C1E0D0E0ECCFEF92FF920F931F93CF9327
:1025E000DF937C0187E090E00E945321EC0185E2BB
:1025F0008883CE01BEDD8C01CE010E94EF216CE00C
:1026000070E0C8013AD7C8010E94EF21C70136DE49
:102610008C0119DED0E0C0E0883C910514F4C3E0E1
:10262000D0E0F801848981110BC0808191818D30C7
:10263000F0E19F07B1F08C30904111F4C2E0D0E09E
:10264000C8010E94EF21F8018489882311F0D0E0AD
:10265000C0E0CE01DF91CF911F910F91FF90EF90DD
:102660000895C1E0D0E0ECCFEF92FF920F931F935B
:10267000CF93DF937C0187E090E00E9453218C018F
:1026800086E2F8018083C80174DDEC01C8010E9474
:10269000EF216CE070E0CE01F0D6C701EFDDFC0168
:1026A00046852785420F5527551F2089420F511D0A
:1026B0002189240F352F311D11E0232B09F010E063
:1026C0000E94EF21CE010E94EF21812FDF91CF9157
:1026D0001F910F91FF90EF900895EF92FF920F934B
:1026E0001F93CF93DF937C0187E090E00E945321FA
:1026F000EC0181E48883CE013CDD8C016CE070E06C
:10270000BCD6C701BBDDFC01F4880E94EF21C801E3
:102710000E94EF21CE010E94EF218F2DDF91CF91FA
:102720001F910F91FF90EF900895EF92FF920F93FA
:102730001F93CF93DF937C0187E090E00E945321A9
:10274000EC0181E58883CE0114DD8C01CE010E946D
:10275000EF216CE070E0C80190D6C7018FDDEC017D
:1027600072DD7C01CE010E94EF21C8010E94EF21A1
:10277000C701893C910514F088EC90E0DF91CF917E
:102780001F910F91FF90EF900895EF92FF920F939A
:102790001F93CF93DF937C01162F87E090E00E9478
:1027A0005321EC0180E6888361E070E0111102C0E2
:1027B00070E060E0CE01B8DCCE01DBDC8C01CE0144
:1027C0000E94EF216CE070E0C80157D6C70156DDCA
:1027D000FC01C4890E94EF21C8010E94EF218C2FC7
:1027E000DF91CF911F910F91FF90EF90089581E0BD
:1027F000089580E008950F931F9309EF13E127EFE9
:1028000033E144E455E068E875E081EC93E00E9430
:10281000150681EC93E00E941E0460E081EC93E0D9
:102820000E94270468E371E081EC93E00E94520368
:1028300023E232E040E060E081EC93E00E94B103EB
:1028400027E232E041E060E081EC93E00E94B103D6
:102850002DE232E042E060E081EC93E00E94B103BF
:102860002BE332E043E060E081EC93E01F910F91B5
:102870000C94B103FEDB81E026DC80E02BDC30DC55
:1028800044DC882311F033DC47CC38DCFDCF84B73F
:10289000877F84BF0FB6F894A89580916000886107
:1028A00080936000109260000FBE80E890E00FB649
:1028B000F89480936100909361000FBE0E943606E9
:1028C0008AB18F718AB98BB1806E8BB994DF0E9407
:1028D000700690E080E00E949806809325030E9495
:1028E000C2060E94D806C6DF0C94891C90E8E9E372
:1028F000F3E0DF01292F1D922A95E9F7EEEDF3E0D1
:10290000DF01292F1D922A95E9F7EEE5F4E0DF01BA
:102910001D929A95E9F7880F92E0980F1092210383
:102920009093220380E00E9498068093090181E041
:102930008093BF038091BF0387FD11C020912103C5
:1029400030912203820F932F911D90932703809340
:1029500026030E949806809360058B3201F5109241
:10296000BF038091BF0387FD13C0209121033091E5
:10297000220320583F4F820F932F911D90932703DE
:10298000809326030E949806809360058B3291F411
:102990001092BF038091BF0387FF17C008959091E5
:1029A000BF03E92FF0E0E85CFC4F80839F5F9093CA
:1029B000BF03C0CF9091BF03E92FF0E0E252FC4F7C
:1029C00080839F5F9093BF03CCCF209121033091F0
:1029D00022033395820F932F911D909327038093A9
:1029E00026030E949806809360058B32B9F290917D
:1029F000BF03E92FF0E0E25AFB4F80839F5F909383
:102A0000BF03C8CFCF92DF92EF92FF920F931F9335
:102A1000CF9329B181E090E02F3711F490E080E06E
:102A20009093BC038093BB03209104013091050176
:102A30008217930731F00E943F0670931E03609344
:102A40001D030E943F0620911D0330911E036B0160
:102A50007C01C21AD30AE108F1089701860140916E
:102A600000015091010170E060E08091BB03909102
:102A7000BC03401751076207730770F42091DE040E
:102A80003091DF042817390739F09093DF048093E1
:102A9000DE04C1E0009709F0C0E090930501809347
:102AA000040129B181E090E02F3B11F490E080E037
:102AB0009093BE038093BD032091060130910701DE
:102AC0008217930731F00E943F06709320036093B2
:102AD0001F030E943F0620911F0330912003AB018A
:102AE000BC01421B530B6109710980910001909157
:102AF0000101B0E0A0E084179507A607B70790F49E
:102B00008091BD039091BE032091DC033091DD03E1
:102B10002817390739F09093DD038093DC03009781
:102B200009F45FC08091BD039091BE0390930701AB
:102B30008093060129B181E090E02F3D11F490E0EF
:102B400080E0909337038093360320910201309107
:102B500003018217930731F00E943F0670931C0314
:102B600060931B030E943F0620911B0330911C03BE
:102B70006B017C01C21AD30AE108F10897018601B2
:102B8000409100015091010170E060E080913603B6
:102B900090913703401751076207730770F4209133
:102BA000B9033091BA032817390739F09093BA0363
:102BB0008093B903009709F4C4E0909303018093D4
:102BC00002018C2FCF911F910F91FF90EF90DF901A
:102BD000CF900895EFE1FEE43197F1F700C00000D7
:102BE000019649B121E030E04F3B11F430E020E0A4
:102BF0004091DC035091DD032417350759F3C3E0FE
:102C0000853691050CF48ECFC2E08CCFE0EEF4E077
:102C100080E8DF011D928A95E9F728E233E041E080
:102C200050E060E870E0CF010E94BF23609125036F
:102C300070E06F5F7F4F6F7377276093250390E09D
:102C400080E00E947E0681EC93E00E94700425E4FF
:102C500032E040E060E081EC93E00E94B103BFEF1E
:102C600021EE84E0B15020408040E1F700C0000038
:102C70001092BF032091BF0327FF57C0E0EEF4E09E
:102C800080E8DF011D928A95E9F728E233E041E010
:102C900050E060E870E0CF010E94BF2381EC93E038
:102CA0000E9470042FE432E040E060E081EC93E0A9
:102CB0000E94B103BFEF21EE84E0B150204080407C
:102CC000E1F700C000001092BF038091BF0387FFAF
:102CD00041C0E0EEF4E080E8DF011D928A95E9F75B
:102CE00028E233E041E050E060E870E0CF010E946C
:102CF000BF2381EC93E00E94700429E532E040E0BC
:102D000060E081EC93E00E94B103BFEF21EE84E02C
:102D1000B15020408040E1F700C000001092BF0396
:102D20008091BF0387FF2EC0089530E0F901E05283
:102D3000FB4F8091250390E0982F8827990F6081A1
:102D4000820F931F0E947E068091BF038F5F809346
:102D5000BF0390CF282F30E0F901E052FB4F809164
:102D6000250390E0982F8827990F820F931F608189
:102D700080589F4F0E947E068091BF038F5F809393
:102D8000BF03A3CF282F30E0F901E052FB4F809121
:102D9000250390E0982F8827990F820F931F608159
:102DA00093950E947E068091BF038F5F8093BF033F
:102DB000B7CF0F931F93CF93DF93D82FC82FCC0F8C
:102DC000CE5F10922103C093220310E000E08091B7
:102DD00021039091220360E0800F911F0E947E06E4
:102DE0000F5F1F4F011582E0180789F760912503D7
:102DF00061506093250390E080E00E947E06809100
:102E000025038D1709F485C071DD10922103C0934D
:102E1000220360E080E09C2F0E947E0681E0809388
:102E2000BF032091BF0327FF19C01092BF038091F9
:102E3000BF0387FF28C01092BF032091BF0327FF65
:102E400037C01092BF032091BF0327FF4AC090E014
:102E500080E0DF91CF911F910F91089530E0809134
:102E6000210390912203820F931F90932703809355
:102E70002603285C3C4FF90160810E947E06809108
:102E8000BF038F5FCCCF2091210330912203820FAB
:102E9000932F911D90932703809326030E949806F9
:102EA000809360058091BF038F5F8093BF03BFCF86
:102EB000809121039091220380589F4F30E0820F30
:102EC000931F909327038093260322523C4FF901CE
:102ED00060810E947E068091BF038F5F8093BF0355
:102EE000ACCF8091210390912203939530E0820F23
:102EF000931F9093270380932603225A3B4FF90197
:102F000060810E947E068091BF038F5F8093BF0324
:102F10009ACF81E090E09DCFDC01FB0190E02D9104
:102F20008191281306C09F5F9038C9F781E090E037
:102F3000089590E080E00895DF92EF92FF920F9362
:102F40001F93CF93DF93E0EEF4E080E8DF011D9262
:102F50008A95E9F728E233E041E050E060E870E06C
:102F6000CF010E94BF231092BF0309E313E090E852
:102F7000D92E8091BF0390912503891740F0DF91EE
:102F8000CF911F910F91FF90EF90DF900895F8017E
:102F90009D2D11929A95E9F7880F8E5F109221036B
:102FA0008093220389E3E82E83E0F82EC1E0D0E08D
:102FB00080912103909122038C0F9D1F90932703F2
:102FC000809326030E9498068093600521968B3299
:102FD00091F460EE74E089E393E09EDF892B29F0A1
:102FE0008091BF03E6DE809360058091BF038F5F11
:102FF0008093BF03BECFD7018D937D01C038D1052B
:10300000B9F6E7CFCF93DF9381E00E94DE0681EC33
:1030100093E00E947004D0E0C0E0CE010E9405075A
:10302000882311F02196F9CFCE010E94FE0623E6F7
:1030300032E041E060E081EC93E00E94B1030E9445
:10304000E506882309F476C081E00E94EB06882318
:1030500009F4A2C081EC93E00E94700420E732E002
:1030600041E060E081EC93E00E94B1030E940C0714
:103070000E94E506811168C081EC93E00E94700413
:1030800023E632E041E060E081EC93E00E94B1038E
:103090000E94E506882309F461C081E00E94EB06E6
:1030A000882309F479C081EC93E00E94700420E742
:1030B00032E041E060E081EC93E00E94B1030E94C5
:1030C00012070E94E506811153C081EC93E00E9433
:1030D000700423E632E041E060E081EC93E00E947E
:1030E000B1030E94E506882309F44CC081E00E94E8
:1030F000EB06882309F450C00E941807892B09F0B9
:103100004BC081EC93E00E9470042CE732E041E078
:1031100060E081EC93E00E94B1032DE832E042E0F0
:1031200060E081EC93E00E94B10380E0DF91CF91F9
:103130000C94DE062FEF80E792E021508040904013
:10314000E1F700C000007BCF2FEF80E792E0215035
:1031500080409040E1F700C000008ACF2FEF80E769
:1031600092E0215080409040E1F700C0000090CFF5
:103170002FEF80E792E0215080409040E1F700C0BF
:1031800000009FCF2FEF80E792E0215080409040D9
:10319000E1F700C00000A5CF81EC93E00E9470042D
:1031A0002DE932E041E0BCCF81EC93E00E94700455
:1031B0008091250324EA32E041E060E08823E1F0D9
:1031C00020EB32E040E060E081EC93E00E94B1034C
:1031D00029E333E041E062E081EC93E00E94B10337
:1031E00026EB32E042E060E081EC93E00E94B10324
:1031F0002EED33E043E062E081EC93E00E94B10306
:103200008FE493EC0197F1F700C0000008950F934D
:103210001F93CF93DF933BDB68E273E08AE091E09A
:1032200021D77894CFEFEEDB80933803909108019B
:10323000823049F5911116C01092240390E080E08D
:103240000E94980680932503809124034FDBACDF16
:1032500081E08093080190E080E0DF91CF911F91A1
:103260000F910895913079F41092080181EC93E068
:103270000E9470042CEB32E040E060E081EC93E0CF
:103280000E94B103E8CF992359F0913009F470C03E
:103290008AE091E0A8D68AE091E060D6B8D5C3CFA5
:1032A000C093C0038AE091E06FD6892B29F08AE0B1
:1032B00091E099D68093C0038091C0038233D9F105
:1032C00090F48033F1F0813319F781EC93E00E94A0
:1032D00070042FED32E041E064E081EC93E00E9465
:1032E000B1032ADE1BC08333A1F1843389F66091D8
:1032F0001A03609560931A0381EC93E00E943004F6
:103300000DC081EC93E00E9470042DEC32E041E0AE
:1033100064E081EC93E00E94B10378DC81EC93E0FF
:103320000E94700425ED32E041E064E081EC93E01E
:103330000E94B103ADCF81EC93E00E94700427EEB0
:1033400032E041E064E081EC93E00E94B1035ADE98
:10335000E5CF81EC93E00E9470042FEE32E041E073
:1033600064E081EC93E00E94B1030E94F806D6CF9E
:10337000813059F48091240390E0019660912503F7
:1033800070E043D7809324030BC0843099F480917C
:1033900024036091250381110AC0615060932403C6
:1033A0008FE493EC0197F1F700C0000071CF8150DA
:1033B000990BE6CF833009F06BCF81E00E94DE06E7
:1033C00081EC93E00E94700423E632E041E064E087
:1033D00081EC93E00E94B10306E910E0D0E00E9486
:1033E000E5068823E1F180E00E94EB060E94F206E8
:1033F000883C90F587EF92E00E9450108EED93E0AC
:103400000E9457109FEF21EE84E0915020408040B1
:10341000E1F700C0000087EF92E00E94501087E0C3
:1034200093E00E9458100E945E1087EF92E00E9485
:1034300050108EE594E00E9457100E945E1087EFB6
:1034400092E00E94501089E093E00E94581080E0C2
:103450000E94DE06A9DE1CCFDF5FDB30C0F7015023
:10346000110909F0BCCFF3CF089508958AE091E0E7
:10347000E9C48AE091E00AC60895680F791F8617AB
:10348000970709F40895FC012191CF013091C800FC
:1034900035FFFCCF2093CE00F2CF94EA9093BC008E
:1034A00094E6699FB00111249B0140E054EA211584
:1034B0003105B1F1442331F08093BB0084E880935F
:1034C000BC0027C09091BC0097FF0AC09091B90042
:1034D000987F903121F0983351F0983059F441E0C1
:1034E0009AE19A95F1F700C021503109E0CF50934D
:1034F000BC00DDCF84E08093BC0081E00895809122
:10350000BC0087FD12C08AE18A95F1F700C06150C6
:1035100071096115710599F783E0089580E00895B8
:1035200084E08093BC0082E008958091B900887F98
:103530008831A1F3803491F384E98093BC0084E066
:1035400008958093BB0084E88093BC008091BC0008
:1035500087FFFCCF9091B900987F81E0983209F005
:1035600080E00895FC0194EC611194E89093BC0014
:103570008091BC0087FFFCCF8091BB00808390913D
:10358000B900987F81E0662321F0983521F080E032
:1035900002C09035E1F70895FC0180916C0590918F
:1035A0006D0586179707A0F06115710529F49091B4
:1035B000E8009E779093E80090E06115710551F462
:1035C000911108C08091E80082FF35C080E0089525
:1035D000BC01F2CF809165058823C9F18530C9F11E
:1035E0008091E80083FD31C08091E80082FDEACF40
:1035F0008091E80080FFE1CF2091F3008091F200FC
:10360000322F282F6115710519F02830310558F037
:1036100091E02830310509F090E02091E8002E7704
:103620002093E800CACF81918093F1006150710925
:103630002F5F3F4FE7CF80916505882341F08530AC
:1036400041F08091E80083FFBDCF81E0089582E0E2
:10365000089583E00895FC0180916C0590916D05BB
:1036600086179707A0F06115710529F48091E8008D
:103670008E778093E80090E06115710551F4911107
:1036800008C08091E80082FF36C080E00895BC0148
:10369000F2CF809165058823D1F18530D1F18091F9
:1036A000E80083FD32C08091E80082FDEACF80917E
:1036B000E80080FFE1CF2091F3008091F200322FEB
:1036C000282F6115710519F02830310558F091E067
:1036D0002830310509F090E08091E8008E778093E2
:1036E000E800CACF84918093F1003196615071094E
:1036F0002F5F3F4FE6CF80916505882341F08530ED
:1037000041F08091E80083FFBCCF81E0089582E022
:10371000089583E00895982F973028F08F70809354
:10372000E90081E008959093E900242F762F50E07E
:10373000981731F07091EC002091ED005091F0005D
:1037400021FD02C09F5FE8CF3091EB003E7F3093B8
:10375000EB003091ED003D7F3093ED003091EB00B8
:1037600031603093EB007093EC002093ED005093A8
:10377000F0002091EE0027FDE5CF80E008950F9343
:103780001F93CF93DF93062FEC0110E0101302C0BC
:1037900081E00FC09881911103C01F5F2596F6CF7D
:1037A0002C81A981BA816B81892F8F70873030F08D
:1037B00080E0DF91CF911F910F91089542E0223078
:1037C00008F046E0E8E0F0E020E0EA17FB0778F0D8
:1037D0002295207F422B20E4629FB0011124991F83
:1037E0009927991F692B97DF8111D7CFE1CF2F5FE1
:1037F000EE0FFF1FEACF8091660587FF13C080910F
:10380000E80082FF06C08091E8008B778093E80093
:1038100004C0809165058111F2CF089580916505FE
:103820008823D9F38091E80080FFF8CF8091E800E9
:103830008E77ECCF2091E4003091E50085E6909101
:10384000EC0090FF06C09091E80090FF06C080E079
:1038500008959091E80092FDFACF90916505992323
:1038600091F0953091F09091EB0095FD10C0409152
:10387000E4005091E5002417350709F381509A01BF
:10388000F1F684E0089582E0089583E0089581E0F0
:1038900008950F931F93CF93DF934BD052D0C8ED71
:1038A000D0E088818F778883888180688883888149
:1038B0008F7D888319BC1092650510926105109266
:1038C00063051092620500EE10E0F80180818B7FA5
:1038D000808388818160888342E060E080E01BDF34
:1038E000E1EEF0E080818E7F8083E2EEF0E0808187
:1038F00081608083808188608083F80180818E7FF1
:103900008083888180618883DF91CF911F910F919F
:103910000895E8EDF0E080818F7E8083E7EDF0E0B0
:1039200080818160808384E082BF81E08093640530
:10393000B0CFE8EDF0E080818E7F80831092E200CE
:1039400008951092DA001092E10008951F920F92EC
:103950000FB60F9211242F933F934F935F936F9362
:103960007F938F939F93AF93BF93EF93FF93809138
:10397000E10082FF0AC08091E20082FF06C08091D0
:10398000E1008B7F8093E10041D28091DA0080FFDB
:1039900017C08091D80080FF13C08091DA008E7F1D
:1039A0008093DA008091D90019BC80FF8CC082E03E
:1039B00089BD09B400FEFDCF81E08093650554DD2B
:1039C0008091E10080FF18C08091E20080FF14C068
:1039D0008091E2008E7F8093E2008091E20080611E
:1039E0008093E2008091D80080628093D80019BC57
:1039F00085E0809365050AD28091E10084FF27C0AD
:103A00008091E20084FF23C019BC82E089BD09B423
:103A100000FEFDCF8091D8008F7D8093D8008091EB
:103A2000E1008F7E8093E1008091E2008F7E8093A1
:103A3000E2008091E20081608093E2008091610564
:103A4000882309F444C084E080936505DFD1809128
:103A5000E10083FF27C08091E20083FF23C08091B3
:103A6000E100877F8093E10082E0809365051092FA
:103A700061058091E1008E7F8093E1008091E200FA
:103A80008E7F8093E2008091E20080618093E2006B
:103A900042E060E080E03FDE8091F000886080934B
:103AA000F000B4D1FF91EF91BF91AF919F918F91B1
:103AB0007F916F915F914F913F912F910F900FBE2A
:103AC0000F901F90189510926505CFDC79CF8091EB
:103AD000E30087FD02C081E0B7CF83E0B5CF1F923E
:103AE0000F920FB60F9211242F933F934F935F9332
:103AF0006F937F938F939F93AF93BF93CF93EF93E6
:103B0000FF93C091E900CF708091EC001092E90022
:103B10008091F000877F8093F00078941BD0109202
:103B2000E9008091F00088608093F000C093E90084
:103B3000FF91EF91CF91BF91AF919F918F917F9125
:103B40006F915F914F913F912F910F900FBE0F900A
:103B50001F9018951F93CF93DF93CDB7DEB7AA9729
:103B60000FB6F894DEBF0FBECDBFE6E6F5E080915C
:103B7000F100819325E0EE36F207C9F77ADC8091F7
:103B8000E80083FF10C0809166059091670595302D
:103B900009F4D8C000F5913009F48BC008F461C075
:103BA000933009F486C08091E80083FF0AC08091B9
:103BB000E800877F8093E8008091EB00806280932B
:103BC000EB00AA960FB6F894DEBF0FBECDBFDF9113
:103BD000CF911F910895983009F4EDC0993009F400
:103BE000F7C0963001F780588230E8F6809168057A
:103BF000909169058C3D23E0920709F0C6C083E0EF
:103C00008A838AE289834FB7F894DE01139620E015
:103C10003EE051E2E32FF0E050935700E49120FFA3
:103C200003C0E295EF703F5FEF708E2F90E0EA30B7
:103C300008F4A9C0C7968D939D932F5F243151F747
:103C40004FBF8091E800877F8093E8006AE270E0D0
:103C5000CE010196A1DC8091E8008B778093E8008B
:103C6000A2CF803899F0823809F09DCF80916A0503
:103C70008F70873008F097CF8093E9008091EB0038
:103C800085FB882780F91092E90006C080916205C3
:103C900090916305911182609091E800977F9093D5
:103CA000E8008093F1001092F1008091E8008E7797
:103CB00032C0282F2D7F09F076CF8823E9F082309B
:103CC00009F071CF80916805811120C080916A054B
:103CD0008F702FEF280F263008F065CF8093E90012
:103CE0002091EB0020FF12C09330C9F48091EB00CB
:103CF00080628093EB000AC080916805813009F0F2
:103D000052CF933009F080E0809363051092E90070
:103D10008091E800877F8093E8006DDD44CF90912B
:103D2000EB0090619093EB0021E030E001C0220FA6
:103D30008A95EAF72093EA001092EA008091EB005E
:103D40008860D7CF81112FCF109168051F778091A0
:103D5000E3008078812B8093E3008091E800877FE7
:103D60008093E80048DD8091E80080FFFCCF8091DF
:103D7000E30080688093E30083E0111101C082E0DA
:103D80008093650510CFC09656CF60916A057091FB
:103D90006B05AE014F5F5F4F0E94D702BC01892BBC
:103DA00009F401CF9091E800977F9093E800898112
:103DB0009A8151DC50CF803809F0F5CE8091E8002F
:103DC000877F8093E800809161058093F1006DCF3B
:103DD0008111E9CE90916805923008F0E4CE80918F
:103DE000E800877F8093E8009093610504DD80916F
:103DF0006105882329F084E08093650537DBD3CE05
:103E00008091E30087FDF7CF81E0F6CF0895CF934F
:103E100080916505882391F0C091E900CF70809171
:103E2000EC0080FD0DC080E0C82B1092E90080916D
:103E3000E80083FD8FDECF70C093E900CF91089535
:103E400080E8F2CFCF93DF93EC01FC0170968BE01A
:103E5000DF011D928A95E9F782E08C83898783E0F0
:103E60008E8761E0CE0101968ADC882361F061E0F3
:103E7000CE01069684DC882331F061E0CE010B96FA
:103E8000DF91CF917CCC80E0DF91CF910895CF93EB
:103E9000C62F209165052430F9F4FC014489558929
:103EA00066897789452B462B472BB1F081818F702E
:103EB0008093E9008091E80085FF05C0C093F10080
:103EC00080E0CF9108958091E8008E778093E8009C
:103ED000B1DC882399F3F5CF82E0F3CFFB01682FA3
:103EE00084859585D4DF21E030E0811102C030E087
:103EF00020E088279927821B930B08952091650560
:103F0000243051F5FC014489558966897789452B10
:103F1000462B472B09F181818F708093E9008091B6
:103F2000F3009091F200892798278927892B11F4B3
:103F300080E008959091E8008091E8008E7780936A
:103F4000E80095FDF5CF76DC811107C09091E8007F
:103F50009E779093E800089582E00895209165058A
:103F6000243089F4FC014489558966897789452B79
:103F7000462B472B41F021812F702093E90020919F
:103F8000E80020FDBBCF089520916505243019F08D
:103F900090E080E00895FC0144895589668977891D
:103FA000452B462B472BA1F386818F708093E90028
:103FB0008091E80082FFECCF8091F3009091F200B5
:103FC000892798278927009731F42091E8002B77DB
:103FD0002093E80008958091F3009091F2008927E2
:103FE00098278927089520916505243019F08FEFCF
:103FF0009FEF0895FC014489558966897789452B8F
:10400000462B472BA1F386818F708093E900809126
:10401000E80082FFECCF8091F3009091F2008927B5
:1040200098278927892B91F08091F10090E02091C9
:10403000F3003091F200232732272327232B29F482
:104040002091E8002B772093E80008958FEF9FEFF1
:10405000EECFFC0184859585C6DF97FF02C08EEF09
:104060009FEF0895FB012EE0DB011D922A95E9F7F1
:1040700023E023832EE63FE13187208729E230E2E7
:10408000338722879587848708950895CF93DF9398
:10409000EC018091E80083FF10C0288180916A05BF
:1040A00090916B052817190641F4809167058132BC
:1040B000E1F030F4803209F44DC0DF91CF910895E2
:1040C000823209F479C08332C1F78091660581326A
:1040D000A1F78091E800877F8093E8008CDB6091F6
:1040E0006805CE01DF91CF91D0CF80916605813AEE
:1040F00021F78091E800877F8093E8008091E800B5
:1041000080FFFCCF8C899D89AE89BF898093F100A7
:10411000492F5A2F6B2F77274093F100AD01662767
:1041200077274093F1008B2F9927AA27BB278093ED
:10413000F100888D8093F100898D8093F1008A8D44
:104140008093F1008091E8008E778093E800DF9102
:10415000CF9151CB80916605813209F0AECF80912D
:10416000E800877F8093E8008091E80082FF1FC00D
:104170003091F1002091F1009091F1008091F100D7
:104180003C8B2D8B9E8B8F8B8091F100888F809143
:10419000F100898F8091F1008A8F8091E8008B7700
:1041A0008093E80028DBCE01DF91CF916ECF809124
:1041B00065058111D9CF81CF80916605813209F0E3
:1041C0007CCF8091E800877F8093E80014DB8091AA
:1041D000680590916905998B888BCE01DF91CF910D
:1041E0004BC9AA1BBB1B51E107C0AA1FBB1FA617C7
:1041F000B70710F0A61BB70B881F991F5A95A9F790
:1042000080959095BC01CD01089597FB072E16F47B
:10421000009406D077FD08D0E4DF07FC05D03EF41B
:10422000909581959F4F0895709561957F4F089562
:10423000A1E21A2EAA1BBB1BFD010DC0AA1FBB1FAA
:10424000EE1FFF1FA217B307E407F50720F0A21B1C
:10425000B30BE40BF50B661F771F881F991F1A9489
:1042600069F760957095809590959B01AC01BD01B3
:10427000CF01089509D0A59F900DB49F900DA49FE4
:10428000800D911D11240895A29FB001B39FC0011C
:10429000A39F700D811D1124911DB29F700D811D72
:1042A0001124911D08950F931F93CF93DF938230B4
:1042B000910510F482E090E0E0917005F0917105B5
:1042C00030E020E0B0E0A0E0309799F4211531050E
:1042D00009F44AC0281B390B24303105D8F58A81EE
:1042E0009B816115710589F1FB0193838283FE0136
:1042F00011C0408151810281138148175907E0F0B4
:104300004817590799F4109761F012960C93129779
:1043100013961C933296CF01DF91CF911F910F918D
:1043200008950093700510937105F4CF21153105A0
:1043300051F04217530738F0A901DB019A01BD0182
:10434000DF01F801C1CFEF01F9CF909371058093A0
:104350007005CDCFFE01E20FF31F819391932250A0
:10436000310939832883D7CF20916E0530916F05AD
:10437000232B41F4209127013091280130936F05C0
:1043800020936E05209125013091260121153105DC
:1043900041F42DB73EB74091290150912A01241BC9
:1043A000350BE0916E05F0916F05E217F307A0F46D
:1043B0002E1B3F0B2817390778F0AC014E5F5F4F7B
:1043C0002417350748F04E0F5F1F50936F05409339
:1043D0006E05819391939FCFF0E0E0E09CCFCF9367
:1043E000DF930097E9F0FC01329713821282A091CB
:1043F0007005B0917105ED0130E020E01097A1F457
:1044000020813181820F931F20916E0530916F05BD
:104410002817390709F061C0F0936F05E0936E0526
:10442000DF91CF910895EA01CE17DF07E8F54A81C1
:104430005B819E0141155105B1F7E901FB83EA83D8
:1044400049915991C40FD51FEC17FD0761F4808184
:1044500091810296840F951FE90199838883828157
:1044600093819B838A83F0E0E0E012968D919C918A
:1044700013970097B9F52D913C911197CD010296B4
:10448000820F931F20916E0530916F052817390711
:1044900039F6309751F51092710510927005B0936E
:1044A0006F05A0936E05BCCFD383C2834081518139
:1044B000840F951FC817D90761F44E5F5F4F88813D
:1044C0009981480F591F518340838A819B8193832F
:1044D00082832115310509F0B0CFF0937105E09387
:1044E00070059ECFFD01DC01C0CF13821282D7CFB1
:1044F000B0E0A0E0EDE7F2E2BAC15C016B017A0145
:104500006115710519F0FB0191838083E114F104B9
:1045100051F0C7010297839730F040E030E020E08F
:1045200090E071C05E01E5012196F5011081812FB7
:1045300090E0F0D0892BB1F71D3201F52196F501FD
:10454000118101E0E114F10409F4D7C0F0E1EF16A4
:10455000F10409F081C0103359F488818F7D8835CA
:1045600009F075C0198122960260F0E1EF2EF12C5E
:10457000812C912CA12C88E0B82E8AC01B3221F40A
:10458000E5012296F501118100E0DCCFEAE0EE16AC
:10459000F10409F4B8C0F0E1EF16F10409F06CC0C1
:1045A000E7CF78E0E72EF12C812C912CA12C60E153
:1045B000B62E6EC03FE9310F3A3128F439EA332E76
:1045C0007EC021E097C0302F3170C114D10431F08A
:1045D000222301F12197F601D183C08327FF20C058
:1045E00060E070E080E090E8311104C06FEF7FEF91
:1045F0008FEF9FE722E230E030937305209372053E
:10460000462F372F282F642F732F822FCDB7DEB779
:10461000E1E149C101FF04C02297F601D183C083C3
:10462000332341F090958095709561957F4F8F4F22
:104630009F4FE6CF97FFE4CF82E290E0909373051F
:10464000809372056FEF7FEF8FEF9FE7D9CF10E375
:10465000E114F10409F4A5CF28E0E216F10409F40D
:10466000A3CF0CF093CF812C912CA12CE0E4BE2E93
:1046700082E0E816F10461F060E070E080E090E82C
:1046800097010F2C000C440B550BD2DD49015A0148
:1046900020E060E070E0CB0127010F2C000C6608E1
:1046A0007708FE0150ED352E310E39E0331540F418
:1046B0003FEB310F3A3108F07DCF49EC342E310E0B
:1046C0003E141F040CF07FCF27FD14C086169706FA
:1046D000A806B90670F0A3019201B9D0630D711D4F
:1046E000811D911D61307105810520E8920708F454
:1046F00068CF2FEF21961081D4CF103309F42DCF3E
:104700002AE0E22EF12C9CEC892E982CA82C9CE01F
:10471000B92EBECF91115CC0803219F089508550FE
:10472000D0F70895FB01DC0104C08D910190801940
:1047300021F441505040C8F7881B990B0895FB01A4
:10474000DC0102C001900D9241505040D8F708950D
:10475000DC0101C06D9341505040E0F70895FB012A
:10476000DC018D91019080190110D9F3990B089506
:10477000FB01DC0101900D920020E1F70895B0E00B
:10478000A0E0E4ECF3E278C05B014A017901F901B1
:104790002381D0E0C0E020FF16C0C815D90599F0EC
:1047A0008C016C01CA0CDB1C08C0C70114D08F3F00
:1047B000980749F0F80181938F01C8010C151D0578
:1047C000A1F72196EACFCE01CDB7DEB7ECE070C0FD
:1047D000992788270895CF93DF93EC012B8120FF41
:1047E0001AC026FF0CC02F7B2B838E819F810196E0
:1047F0009F838E838A8190E0DF91CF91089522FF7D
:1048000018C0E881F9818081082E000C990B00976F
:1048100029F420622B838FEF9FEFEECF3196F9833F
:10482000E8832E813F812F5F3F4F3F832E8399275F
:10483000E3CFEA85FB85099597FFF3CF2B8101969E
:1048400021F080E2822B8B83E6CF80E1FBCFDB017E
:104850008F939F930FDDBF91AF91A29F800D911D0C
:10486000A39F900DB29F900D112408952F923F9217
:104870004F925F926F927F928F929F92AF92BF9270
:10488000CF92DF92EF92FF920F931F93CF93DF931C
:10489000CDB7DEB7CA1BDB0B0FB6F894DEBF0FBE79
:1048A000CDBF09942A88398848885F846E847D84C6
:1048B0008C849B84AA84B984C884DF80EE80FD80C8
:1048C0000C811B81AA81B981CE0FD11D0FB6F8943E
:0E48D000DEBF0FBECDBFED010895F894FFCFFF
:1048DE0032000100010001000130008310000001D0
:1048EE00041000000182080000010000000000001A
:1048FE0000000000000000740520000001140A648E
:10490E0064323200127A00000428961004000080EF
:10491E000020001815A015C019FF1815A115C819EB
:10492E00FF1815AE19FF1815AF19FF1815AE15D5CE
:10493E00168015A8161F15D316001540158D1614C2
:10494E001520160015A115C815DA16021581168F39
:10495E0015D916F115DB1640152E15A415A619FF3F
:10496E0000000110021003100410051006100710AD
:10497E00081009100A100B100C100D100E100F104D
:10498E001010111012106E616E00696E66006F7657
:10499E0066004F4B004552524F52004F4B0D004593
:1049AE0052524F520D00000000002309E307DF07AB
:1049BE00E207230923092309230900000000230924
:1049CE00E307DF07E20723092309230923090D0A59
:1049DE004F4B0D0A002B2B2B0000000000A90E19C7
:1049EE000FDF07360C810FB00FF60F2C0C302E3662
:1049FE002E360059656B0031383530300046617403
:104A0E00656D612C204D6174742C00616E642054B0
:104A1E00796C65720054797065205265632E004E74
:104A2E00616D65205265632E00506173732052656F
:104A3E00632E0050726573732046696E676572004F
:104A4E004C6966742046696E6765720046696E67CA
:104A5E0065727072696E74207375632D0063657371
:104A6E007366756C6C792061646465640046616977
:104A7E006C6564004E6F204163636F756E747300D6
:104A8E00547970653A004E616D653A0053776974DA
:104A9E00636820746F2055504C4F4144004144448C
:104AAE0020414343004564697420496E666F00528D
:104ABE00454D20414343004144442046494E005257
:104ACE00454D2046494E0041542B426C654B65794D
:104ADE00626F6172643D0009005C6E0A5C720A0AC4
:024AEE000000C6
:00000001FF
